{
  "contractName": "SimpleAuction",
  "abi": [
    {
      "constant": true,
      "inputs": [],
      "name": "beneficiary",
      "outputs": [
        {
          "name": "",
          "type": "address"
        }
      ],
      "payable": false,
      "stateMutability": "view",
      "type": "function"
    },
    {
      "constant": true,
      "inputs": [],
      "name": "auctionStart",
      "outputs": [
        {
          "name": "",
          "type": "uint256"
        }
      ],
      "payable": false,
      "stateMutability": "view",
      "type": "function"
    },
    {
      "constant": true,
      "inputs": [],
      "name": "highestBidder",
      "outputs": [
        {
          "name": "",
          "type": "address"
        }
      ],
      "payable": false,
      "stateMutability": "view",
      "type": "function"
    },
    {
      "constant": true,
      "inputs": [],
      "name": "biddingTime",
      "outputs": [
        {
          "name": "",
          "type": "uint256"
        }
      ],
      "payable": false,
      "stateMutability": "view",
      "type": "function"
    },
    {
      "constant": true,
      "inputs": [],
      "name": "highestBid",
      "outputs": [
        {
          "name": "",
          "type": "uint256"
        }
      ],
      "payable": false,
      "stateMutability": "view",
      "type": "function"
    },
    {
      "inputs": [
        {
          "name": "_biddingTime",
          "type": "uint256"
        },
        {
          "name": "_beneficiary",
          "type": "address"
        }
      ],
      "payable": false,
      "stateMutability": "nonpayable",
      "type": "constructor"
    },
    {
      "payable": false,
      "stateMutability": "nonpayable",
      "type": "fallback"
    },
    {
      "anonymous": false,
      "inputs": [
        {
          "indexed": false,
          "name": "_bidder",
          "type": "address"
        },
        {
          "indexed": false,
          "name": "_amount",
          "type": "uint256"
        }
      ],
      "name": "HighestBidIncreased",
      "type": "event"
    },
    {
      "anonymous": false,
      "inputs": [
        {
          "indexed": false,
          "name": "_winner",
          "type": "address"
        },
        {
          "indexed": false,
          "name": "_amount",
          "type": "uint256"
        }
      ],
      "name": "AuctionEnded",
      "type": "event"
    },
    {
      "constant": false,
      "inputs": [],
      "name": "bid",
      "outputs": [],
      "payable": true,
      "stateMutability": "payable",
      "type": "function"
    },
    {
      "constant": false,
      "inputs": [],
      "name": "withdraw",
      "outputs": [
        {
          "name": "",
          "type": "bool"
        }
      ],
      "payable": false,
      "stateMutability": "nonpayable",
      "type": "function"
    },
    {
      "constant": false,
      "inputs": [],
      "name": "auctionEnd",
      "outputs": [],
      "payable": false,
      "stateMutability": "nonpayable",
      "type": "function"
    }
  ],
  "bytecode": "0x608060405260006005556000600760006101000a81548160ff02191690831515021790555034801561003057600080fd5b5060405160408061075e8339810180604052810190808051906020019092919080519060200190929190505050806000806101000a81548173ffffffffffffffffffffffffffffffffffffffff021916908373ffffffffffffffffffffffffffffffffffffffff16021790555042600381905550816002819055508142016001819055505050610699806100c56000396000f30060806040526004361061008e576000357c0100000000000000000000000000000000000000000000000000000000900463ffffffff1680631998aeef146100a05780632a24f46c146100aa57806338af3eed146100c15780633ccfd60b146101185780634f245ef71461014757806391f9015714610172578063d074a38d146101c9578063d57bde79146101f4575b34801561009a57600080fd5b50600080fd5b6100a861021f565b005b3480156100b657600080fd5b506100bf6103ab565b005b3480156100cd57600080fd5b506100d66104eb565b604051808273ffffffffffffffffffffffffffffffffffffffff1673ffffffffffffffffffffffffffffffffffffffff16815260200191505060405180910390f35b34801561012457600080fd5b5061012d610510565b604051808215151515815260200191505060405180910390f35b34801561015357600080fd5b5061015c610635565b6040518082815260200191505060405180910390f35b34801561017e57600080fd5b5061018761063b565b604051808273ffffffffffffffffffffffffffffffffffffffff1673ffffffffffffffffffffffffffffffffffffffff16815260200191505060405180910390f35b3480156101d557600080fd5b506101de610661565b6040518082815260200191505060405180910390f35b34801561020057600080fd5b50610209610667565b6040518082815260200191505060405180910390f35b6002546003540142111561023257600080fd5b6005543411151561024257600080fd5b6000600460009054906101000a900473ffffffffffffffffffffffffffffffffffffffff1673ffffffffffffffffffffffffffffffffffffffff161415156102f65760055460066000600460009054906101000a900473ffffffffffffffffffffffffffffffffffffffff1673ffffffffffffffffffffffffffffffffffffffff1673ffffffffffffffffffffffffffffffffffffffff168152602001908152602001600020600082825401925050819055505b33600460006101000a81548173ffffffffffffffffffffffffffffffffffffffff021916908373ffffffffffffffffffffffffffffffffffffffff160217905550346005819055507ff4757a49b326036464bec6fe419a4ae38c8a02ce3e68bf0809674f6aab8ad3003334604051808373ffffffffffffffffffffffffffffffffffffffff1673ffffffffffffffffffffffffffffffffffffffff1681526020018281526020019250505060405180910390a1565b600154421115156103bb57600080fd5b600760009054906101000a900460ff16156103d557600080fd5b6001600760006101000a81548160ff0219169083151502179055507fdaec4582d5d9595688c8c98545fdd1c696d41c6aeaeb636737e84ed2f5c00eda600460009054906101000a900473ffffffffffffffffffffffffffffffffffffffff16600554604051808373ffffffffffffffffffffffffffffffffffffffff1673ffffffffffffffffffffffffffffffffffffffff1681526020018281526020019250505060405180910390a16000809054906101000a900473ffffffffffffffffffffffffffffffffffffffff1673ffffffffffffffffffffffffffffffffffffffff166108fc6005549081150290604051600060405180830381858888f193505050501580156104e8573d6000803e3d6000fd5b50565b6000809054906101000a900473ffffffffffffffffffffffffffffffffffffffff1681565b600080600660003373ffffffffffffffffffffffffffffffffffffffff1673ffffffffffffffffffffffffffffffffffffffff168152602001908152602001600020549050600081111561062c576000600660003373ffffffffffffffffffffffffffffffffffffffff1673ffffffffffffffffffffffffffffffffffffffff168152602001908152602001600020819055503373ffffffffffffffffffffffffffffffffffffffff166108fc829081150290604051600060405180830381858888f19350505050151561062b5780600660003373ffffffffffffffffffffffffffffffffffffffff1673ffffffffffffffffffffffffffffffffffffffff1681526020019081526020016000208190555060009150610631565b5b600191505b5090565b60035481565b600460009054906101000a900473ffffffffffffffffffffffffffffffffffffffff1681565b60025481565b600554815600a165627a7a7230582018cb7fcb2b69c516d268d8935b82644dc9eb7f1a736ce4371c672c4e0a1b94b30029",
  "source": "pragma solidity ^0.4.22;\r\n\r\ncontract SimpleAuction {\r\n  // 定义参数：受益人、拍卖结束时间\r\n    address public beneficiary;\r\n    uint public auctionEnd;\r\n    uint public biddingTime;\r\n    uint public auctionStart;\r\n\r\n    // 最高出价者\r\n    address public highestBidder;\r\n\r\n    // 最高出价\r\n    uint public highestBid = 0;\r\n\r\n    mapping (address => uint) pendingReturns; // 用于取回之前的出价\r\n\r\n    // 拍卖是否结束，不允许被修改\r\n    bool ended = false;\r\n\r\n    // 最高出价变动时调用事件\r\n    event HighestBidIncreased(address _bidder, uint _amount);\r\n\r\n    // 拍卖结束时调用事件\r\n    event AuctionEnded(address _winner, uint _amount);\r\n\r\n    // The following is a so-called natspec comment,\r\n    // recognizable by the three slashes.\r\n    // It will be shown when the user is asked to\r\n    // confirm a transaction.\r\n\r\n    // 构造函数\r\n    // 创建一个拍卖对象，初始化参数值：受益人、拍卖持续时间\r\n    constructor(uint _biddingTime, address _beneficiary) public {\r\n        beneficiary = _beneficiary;\r\n        auctionStart = now;\r\n        biddingTime = _biddingTime;\r\n        auctionEnd = now + _biddingTime; // now: current block's timestamp\r\n\r\n    }\r\n\r\n    // 使用代币进行拍卖，当拍卖失败时，会退回代币\r\n    // 出价功能：包括交易参数\r\n    // 当出价不是最高，资金会被自动退回\r\n    function bid() public payable{\r\n        // 不需要参数，因为都被自动处理了\r\n        // 当一个函数要处理Ether时，需要包含payable的修饰符\r\n\r\n        // 如果超过了截止期，交易撤回\r\n        if(now > auctionStart + biddingTime){\r\n            revert();\r\n        }\r\n\r\n        // 如果出价不够，交易撤回\r\n        if (msg.value <= highestBid){\r\n            revert();\r\n        }\r\n\r\n        // 如果出价最高，当前出价者作为最高出价人\r\n        if (highestBidder != 0){\r\n          //highestBidder.send(highestBid); // send ether(in wei)to the address\r\n          // 调用highestBidder.send(highestBid)的方式是危险的\r\n          // 因为会执行不知道的协议\r\n          // 因此最好让用户自己取回自己的代币\r\n          pendingReturns[highestBidder] += highestBid;\r\n        }\r\n        highestBidder = msg.sender;\r\n        highestBid = msg.value;\r\n        emit HighestBidIncreased(msg.sender, msg.value);\r\n    }\r\n\r\n    // 取回被超出的拍卖前的出资\r\n    function withdraw() public returns (bool){\r\n        uint amount = pendingReturns[msg.sender];\r\n        if (amount > 0){\r\n            // 需要提前设置为0，因为接收者可以在这个函数结束前再次调用它\r\n            pendingReturns[msg.sender] = 0;\r\n\r\n            if (!msg.sender.send(amount)){\r\n                // 不需要throw，直接重置代币数量即可\r\n                pendingReturns[msg.sender] = amount;\r\n                return false;\r\n            }\r\n        }\r\n        return true;\r\n    }\r\n\r\n    // 结束拍卖，将金额给予受益人\r\n    function auctionEnd() public {\r\n        // 与其他协议交互的最好遵循以下顺序的三个步骤：\r\n        // 1.检查状况\r\n        // 2.修改状态\r\n        // 3.合约交互\r\n        // 如果这三个步骤混在一起，那么攻击者可能通过多次调用这个函数来进行攻击\r\n\r\n        // 1.检查状况\r\n        if (now <= auctionEnd) {\r\n          revert();\r\n        }\r\n        if(ended){\r\n          revert();\r\n        }\r\n      //  require (now >= auctionEnd, \"Auction not yet ended.\");\r\n      //  require (!ended, \"auctionEnd has already called.\");\r\n\r\n        // 2.修改状态\r\n        ended = true;\r\n        emit AuctionEnded(highestBidder, highestBid);\r\n\r\n        // 3.合约交互\r\n        beneficiary.transfer(highestBid);\r\n      }\r\n\r\n      function () public{\r\n        revert();\r\n      }\r\n}",
  "sourcePath": "C:\\Users\\Cosmo\\Desktop\\eth-auction\\contracts\\SimpleAuction.sol",
  "compiler": {
    "name": "solc",
    "version": "0.4.22+commit.4cb486ee.Emscripten.clang"
  },
  "schemaVersion": "3.4.3",
  "updatedAt": "2021-11-01T03:58:46.803Z",
  "devdoc": {
    "methods": {}
  },
  "userdoc": {
    "methods": {}
  }
}